:020000040800F2
:100000004008002045010008450800083D08000898
:10001000410800082D020008810A000800000000C5
:1000200000000000000000000000000011090008AE
:100030009506000800000000CD080008FD09000832
:100040005F0100085F0100085F0100085F01000810
:100050005F0100085F0100085F0100085F01000800
:100060005F0100085F0100085F0100085F010008F0
:100070005F0100085F0100085F0100085F010008E0
:100080005F0100085F0100085F0100085F010008D0
:10009000610A00085F0100085F0100085F010008B5
:1000A0005F0100085F0100085F0100085F010008B0
:1000B0005F0100085F0100085F0100085F010008A0
:1000C0005F0100085F0100085F0100085F01000890
:1000D0005F0100085F0100085F0100085F01000880
:1000E0005F0100085F0100085F0100085F01000870
:1000F0005F0100085F0100085F0100085F01000860
:100100005F0100085F0100085F0100085F0100084F
:100110005F0100085F0100085F0100085F0100083F
:100120005F0100085F0100085F0100085F0100082F
:10013000DFF80CD000F068F8004800474D0E0008CA
:10014000400800200648804706480047FEE7FEE7D3
:10015000FEE7FEE7FEE7FEE7FEE7FEE7FEE7FEE777
:10016000010A00083101000880EA010210B502F01E
:100170000043400022D04A001FD0010E01EB126163
:10018000C0F35600C2F3560240F4000042F40002ED
:10019000A0FB022000047F39140400D0401C50EA68
:1001A000124001D44000491EC2B20C0604EBD0102C
:1001B000401C4008802A02D003E0002010BD20F03F
:1001C0000100002900DA0020184310BD20F0004093
:1001D000C10DC0F3160040F400007F2901DA0020B1
:1001E0007047962903DCC1F19601C84070479639E3
:1001F00088407047002801DBC0F10040002901DB86
:10020000C1F1004188427047064C074D06E0E068A6
:1002100040F0010394E8070098471034AC42F6D34D
:10022000FFF78AFF9C0F0008BC0F000800BFFEE725
:1002300010B50021837A012202FA03F13D4A1268C7
:1002400042F001023B4B1A603A4A1C3212688A4360
:10025000384B1C331A60027BCAB9364A0C3212681A
:100260008A43344B0C331A604288C38842EA034302
:10027000304A4032847A42F834300288838842EA35
:1002800003432C4A4032847A02EBC4025360027B5F
:10029000012A19D1274A0C3212680A43254B0C3324
:1002A0001A604288038842EA0343224A4032847A31
:1002B00042F83430C288838842EA03431D4A403200
:1002C000847A02EBC4025360C27A3AB9194A121D09
:1002D00012688A43174B1B1D1A6006E0154A121D4F
:1002E00012680A43134B1B1D1A60028932B9114A66
:1002F000143212688A430F4B14331A600289012AA0
:1003000006D10C4A143212680A430A4B14331A609D
:10031000427B012A06D1074A1C3212680A43054B68
:100320001C331A60034A126822F00102014B1A6062
:1003300010BD0000006600401AB143690B434361E1
:1003400002E043698B434361704730B502460020A9
:100350000023146824F002041460146844F00104BB
:10036000146000E05B1C546804F001041CB94FF6F3
:10037000FF74A342F6D1546804F001040CB90020C4
:100380006CE08C79012C04D1146844F08004146072
:1003900003E0146824F080041460CC79012C04D1AB
:1003A000146844F04004146003E0146824F040042E
:1003B00014600C7A012C04D1146844F020041460F9
:1003C00003E0146824F0200414604C7A012C04D15A
:1003D000146844F01004146003E0146824F010045E
:1003E00014608C7A012C04D1146844F00804146061
:1003F00003E0146824F008041460CC7A012C04D1C2
:10040000146844F00404146003E0146824F0040445
:1004100014608C78A407CD7844EA05640D7944EA29
:1004200005444D7944EA05540D886D1E2C43D46172
:10043000146824F001041460002300E05B1C54687D
:1004400004F001041CB14FF6FF74A342F6D15468C6
:1004500004F001040CB1002000E0012030BD10B513
:1004600000F5D87303EB01131B6803F00403137248
:10047000137A53B900F5D87303EB01131B6840F2EC
:10048000FF7404EA5353136009E000F5D87303EBDB
:1004900001131B686FF0604404EAD303536000F556
:1004A000D87303EB01131B6803F00203537200F5CA
:1004B000D87303EB01135B6803F00F03937200F52D
:1004C000D87303EB01135B681B0AD37400F5D87370
:1004D00003EB01139B68D37200F5D87303EB011390
:1004E0009B681C0A147300F5D87303EB01139B6817
:1004F0001C0C547300F5D87303EB01139B681B0E9F
:10050000937300F5D87303EB0113DB68D37300F525
:10051000D87303EB0113DB681C0A147400F5D8735D
:1005200003EB0113DB681C0C547400F5D87303EB68
:100530000113DB681B0E937421B9C36843F02003D9
:10054000C36003E0036943F02003036110BD002191
:100550008171C171017241728172C1728170C17009
:10056000032101710221417101210180704710B501
:1005700002460020936803F08063B3F1806F00D1DE
:1005800010E0936803F00063B3F1006F01D1012024
:1005900008E0936803F08053B3F1805F01D102203B
:1005A00000E00420042874D002F5C07303EB0013AC
:1005B0001B6803F0010402F5C07303EB00131C6019
:1005C0000B7A7BB94B7A0C8843EA445302F5C0742A
:1005D00004EB00142468234302F5C07404EB0014F8
:1005E000236010E00B7A4C6843EAC4034C7A23433F
:1005F00002F5C07404EB00142468234302F5C074B0
:1006000004EB001423608B7A03F00F038B7202F566
:10061000C07303EB00135B6823F00F0402F5C07393
:1006200003EB00135C6002F5C07303EB00135B681F
:100630008C7A234302F5C07404EB001463608B7B57
:100640001C064B7B44EA03440B7B44EA0323CC7A2D
:10065000234302F5C07404EB0014A3608B7C1C06DA
:100660004B7C44EA03440B7C44EA0323CC7B2343C6
:1006700002F5C07404EB0014E36002F5C07303EBF1
:1006800000131B6843F0010402F5C07303EB001371
:100690001C6010BD70472DE9F04102460025002680
:1006A000002000230024002791F803C00CF00F0560
:1006B00091F803C00CF0100CBCF1000F03D091F8BE
:1006C00002C04CEA050591F800C0BCF1000F31D022
:1006D000146800202BE04FF0010C0CFA00F3B1F885
:1006E00000C00CEA03069E4220D183004FF00F0C9D
:1006F0000CFA03F7BC4305FA03FC4CEA040491F836
:1007000003C0BCF1280F06D14FF0010C0CFA00FC1D
:10071000C2F814C00AE091F803C0BCF1480F05D13B
:100720004FF0010C0CFA00FCC2F810C0401C082865
:10073000D1D31460B1F800C0BCF1FF0F34DD5468B0
:1007400000202EE000F1080C4FF0010808FA0CF32D
:10075000B1F800C00CEA03069E4221D183004FF09D
:100760000F0C0CFA03F7BC4305FA03FC4CEA040433
:1007700091F803C0BCF1280F05D100F1080C08FA6C
:100780000CF8C2F8148091F803C0BCF1480F07D1EF
:1007900000F1080C4FF0010808FA0CF8C2F81080BC
:1007A000401C0828CED35460BDE8F081F0B50A465D
:1007B000002300240021002500F00046B6F1004F80
:1007C00002D11D4EF16901E01B4E7168C0F3034573
:1007D00083B200F44016B6F5401F08D121F07061D5
:1007E000154E766826F07066134F7E6012E000F4B6
:1007F0008016B6F5801F06D1032606FA05F4A1433C
:1008000041F0706106E0460D360103FA06F6B14389
:1008100041F0706122B1460D360103FA06F631430C
:1008200000F00046B6F1004F02D1034EF16101E045
:10083000014E7160F0BD00000000014000BFFEE706
:1008400000BFFEE77047000070B5002100230F22B3
:10085000C47804B3154C246804F4E064C4F5E0647F
:10086000210AC1F10403CA40447804FA03F18478F0
:100870001440214309010E4C0678A155047804F078
:100880001F050124AC4005786D11AD0005F1E02590
:10089000C5F8004109E0047804F01F050124AC40CC
:1008A000044D0678761145F8264070BD0CED00E049
:1008B00000E400E080E100E002490143024A1160E7
:1008C000704700000000FA050CED00E070470000E2
:1008D00029B1064AD2690243044BDA6104E0034AB3
:1008E000D2698243014BDA61704700000010024078
:1008F00029B1064A92690243044B9A6104E0034A13
:1009000092698243014B9A617047000000100240D7
:10091000704710B500F002F810BD00000CB50020C3
:10092000019000903348006840F4803031490860FD
:1009300000BF3048006800F4003000900198401C6F
:100940000190009818B90198B0F5A06FF1D129482D
:10095000006800F4003010B10120009001E0002098
:1009600000900098012843D12348006840F010000F
:10097000214908600846006820F003000860084626
:10098000006840F0020008601A4840681949486051
:100990000846406848600846406840F48060486007
:1009A0000846406820F47C1048600846406840F4DF
:1009B000E81048600846006840F08070086000BF9A
:1009C0000C48006800F000700028F9D00948406821
:1009D00020F00300074948600846406840F00200E4
:1009E000486000BF0348406800F00C000828F9D1B7
:1009F0000CBD0000001002400020024070470000C3
:100A000010B51348006840F001001149086008461D
:100A10004068104908400E494860084600680E4981
:100A200008400B4908600846006820F480200860F0
:100A30000846406820F4FE0048604FF41F008860BC
:100A4000FFF767FF4FF000600449086010BD000029
:100A5000001002400000FFF8FFFFF6FE08ED00E086
:100A600010B5054A00210548FFF7F9FC01200249AD
:100A700081F8280010BD0000140000200064004030
:100A800000BFFEE72DE9F04F87B006460F4614463B
:100A90001D46DDF84CA0DDE910890020039004908C
:100AA000059006900290019036494046FFF75CFBA6
:100AB00000210090FFF79EFB04D232494046FFF729
:100AC00053FB05E02F494046FFF74EFB80F0004006
:100AD0008346FFF77BFB80B202902A494846FFF726
:100AE00043FB00210090FFF785FB04D225494846CF
:100AF000FFF73AFB05E023494846FFF735FB80F056
:100B000000408346FFF762FB01908DF80C60FD20EA
:100B10008DF80D008DF80E7020128DF80F00E0B2E8
:100B20008DF8100028128DF81100E8B28DF812002F
:100B3000BDF8080000128DF81300BDF80800C0B21F
:100B40008DF814000198000E8DF815000198000C26
:100B50008DF816000198000A8DF817000198C0B2B0
:100B60008DF8180012988DF819008DF81AA06B20D6
:100B70008DF81B00102103A800F01EF807B0BDE897
:100B8000F08F00000000204102E008C8121F08C1D9
:100B9000002AFAD170477047002001E001C1121FFE
:100BA000002AFBD1704710B500F0E4F900F00EF90F
:100BB00000F084F810BD000030B585B004460D4645
:100BC000002004900390029001900090A81EC0B2F3
:100BD000039066E09DF80C009DF81010401AC0B21A
:100BE000029000203349486120789DF8001041EAC6
:100BF0000021304881616178C177042101770021AB
:100C000041779DF80800082823DA0020019013E0BE
:100C10009DF81000801C225C26481F309DF80410AF
:100C2000491C42549DF80400401CC0B201909DF83C
:100C30001000401CC0B204909DF804009DF80810FC
:100C40008842E5DB9DF80800401CC1B21948817755
:100C50001DE00020019013E09DF81000801C225C34
:100C600014481F309DF80410491C42549DF804009C
:100C7000401CC0B201909DF81000401CC0B204900E
:100C80009DF804000728E7DB08210A488177094915
:100C900014310948FFF76BFC9DF80000401CC0B2FE
:100CA00000909DF810009DF80C10884292DB05B072
:100CB00030BD0000140000200064004000B58FB07B
:100CC0004FF40070ADF8380003208DF83A0018207A
:100CD0008DF83B000EA93B48FFF7DDFC4FF4807018
:100CE000ADF8380048208DF83B000EA93548FFF7D5
:100CF000D2FC01214FF4EA10FFF758FD0BA8FFF7D3
:100D000026FC00208DF832008DF833008DF8340079
:100D10008DF835008DF836008DF837008DF82E00EF
:100D20008DF82F0008208DF8300001208DF831005B
:100D30000620ADF82C000BA92348FFF706FB002086
:100D40000A909DF82800401107909DF828004FF662
:100D5000FF7101EAC020001D0890002009909DF855
:100D60002400401105909DF8240001EAC020001DD8
:100D7000069001208DF80E0000208DF80F00012054
:100D80008DF81000BDF81C00ADF80400BDF820007F
:100D9000ADF80600BDF81400ADF80800BDF8180065
:100DA000ADF80A000020ADF80C0001208DF811000C
:100DB00001A8FFF73DFA012202210348FFF7BCFA20
:100DC0000FB000BD000C01400064004010B50121CF
:100DD0000D20FFF78DFD01214806FFF779FD012168
:100DE0000148FFF7E3FC10BD0002300008B5002108
:100DF00000916FF07F414FF0E0225161002191613D
:100E00000521116114E000214FF0E02291610E49AB
:100E100009684FF47A72B1FBF2F1C1F1807100916F
:100E200000BF4FF0E0218969009A9142F9D8401E35
:100E30000028E8DC4FF0E021096921F001014FF0C2
:100E4000E022116108BD0000000000201FB5FFF77F
:100E5000AAFE4FF4FA60FFF7C9FF0020414A424B57
:100E6000CDE90120009303904FF47A731A460146AE
:100E70000120FFF707FE00203A4A3B4BCDE9012055
:100E8000009303904FF47A731A4601210220FFF772
:100E9000F9FD0020334A344BCDE901200093039043
:100EA0004FF47A731A4601210320FFF7EBFD00206F
:100EB0002C4A2D4BCDE90120009303904FF47A7317
:100EC0001A4601460420FFF7DDFD4FF4FA60FFF7F4
:100ED0008DFF0020254A244BCDE90120009303908B
:100EE0004FF47A731A4601210846FFF7CBFD002024
:100EF0001E4A1D4BCDE90120009303904FF47A73F5
:100F00001A4601210220FFF7BDFD0020174A164BAB
:100F1000CDE90120009303904FF47A731A46012122
:100F20000320FFF7AFFD0020104A0F4BCDE9012051
:100F3000009303904FF47A731A4601210420FFF7BF
:100F4000A1FD4FF4FA50FFF751FF00BF084890F899
:100F500028000028FAD00020054981F8280000BFA9
:100F6000FEE70000000067430000FA44000056441A
:100F70001400002008B54FF44070FFF79DFC0120DD
:100F80008DF8030000208DF802008DF80100142078
:100F90008DF800006846FFF757FC08BDBC0F00083D
:100FA0000000002014000000880B0008D00F00088B
:100FB000140000202C080000980B000800A24A042E
:100FC00000000000000000000102030406070809F9
:0400000508000131BD
:00000001FF
